:020000040800F2
:10000000B8060020A90100081D3000085924000886
:10001000D92C0008290C0008713A000800000000E3
:100020000000000000000000000000009D300008FB
:100030002D0C00080000000069300008C1300008E5
:10004000C3010008C3010008C3010008C301000880
:10005000C3010008C3010008C3010008C301000870
:10006000C3010008C3010008C3010008C301000860
:10007000C3010008C3010008C3010008C301000850
:10008000C3010008C3010008C3010008000000000C
:10009000000000000000000000000000C301000894
:1000A000C3010008C3010008E5310008C3010008CE
:1000B000C3010008C3010008C3010008C301000810
:1000C000C3010008C3010008C3010008C301000800
:1000D000C3010008C3010008453A00080000000001
:1000E000C3010008C3010008C301000800000000AC
:1000F000000000000000000000000000C301000834
:1001000000000000C3010008C3010008C30100088B
:1001100000000000000000000000000000000000DF
:10012000C3010008C3010008C3010008C30100089F
:10013000C3010008000000000000000000000000F3
:10014000000000000000000000000000C3010008E3
:10015000C3010008C3010008C3010008C30100086F
:10016000C3010008C30100080000000000000000F7
:10017000000000000000000000000000000000007F
:1001800000000000C30100080000000000000000A3
:10019000C3010008DFF80CD000F06CFB00480047FA
:1001A0001F620008B806002006488047064800473E
:1001B000FEE7FEE7FEE7FEE7FEE7FEE7FEE7FEE717
:1001C000FEE7FEE781310008950100082DE9F05FA8
:1001D0000546002092469B468846064681464024B6
:1001E0001BE0284641464746224600F05DFA53464A
:1001F0005A46C01A914110D311461846224600F0C3
:1002000044FA2D1A67EB01084F46224601200021CF
:1002100000F03BFA17EB00094E41201EA4F1010447
:10022000DFDC484631462A464346BDE8F09F2DE9CB
:10023000F0410024061B254671F1000605DA012471
:100240000027D0EB070067EB0101161E73F10006D3
:1002500005DA0027D2EB0702012567EB0303FFF75E
:10026000B5FF86460E4617469C46AC4204D0002594
:10027000D0EB050E65EB010624B10020D2EB0007A0
:1002800060EB030C704631463A466346BDE8F081A8
:10029000D2B201E000F8012B491EFBD270470022C8
:1002A000F6E710B513460A4604461946FFF7F0FF75
:1002B000204610BD30B504460020034600E05B1C1C
:1002C000934203D2E05CCD5C401BF8D030BD2DE9F9
:1002D000FE4F804681EA0300C00F0C46009021F0DB
:1002E000004123F00045B8EB0200A94105D2404689
:1002F000214690461C460B46024623F00040104320
:1003000047D0270DC7F30A00C3F30A510290401AE1
:10031000019040286BDAC3F3130040F4801B00986F
:10032000924620B10023D2EB030A63EB0B0B01983A
:100330005946C0F14002504600F0A7F906460D4666
:1003400050465946019A00F0BFF910EB0800614190
:10035000002487EA115284EAE7731A4340D0009AD6
:1003600062B3019A012A4FEA075215DC001B61EBC8
:1003700002014FF0004202EA0752CDE90042001CA0
:1003800041F5801132462B4600F0F6F903B0BDE886
:10039000F08F40462146F9E7001B61EB0201001C8B
:1003A00041F5801300185B412018A2F5001747EBB8
:1003B000030140EAD570B6196D4111E06D084FEAAE
:1003C000360645EAC0754FEA0752001B61EB020191
:1003D000001C41F5801149084FEA300000195141D5
:1003E00032462B4603B0BDE8F04F00F0B6B9009896
:1003F000012240000023D0EB020263EBE07300987F
:1004000021464FEAE074B8EB000061EB0401E9E734
:1004100083F000435BE781F0004158E72DE9FE4F90
:1004200081EA030404F0004421F0004100944FF0FD
:10043000000B23F0004350EA01045ED052EA0304AB
:100440005BD0C3F30A54C1F30A552C44A4F2F3342D
:100450000194A0FB0254C1F3130141F48011C3F3D2
:10046000130343F4801301FB024400FB034E840A90
:10047000970A44EA815447EA8357A4FB0768029528
:100480008D0A05FB07854FEA932C04FB0C542705C6
:10049000029D4FEA065847EA1637B5EB08056EEBA2
:1004A000070C870E920E47EA811742EA8312A7FBD8
:1004B0000201B6EB0B0164EB00042B0D43EA0C3395
:1004C0005E1844EB1C50DA465146E7FB0201C5F3C7
:1004D00013044FEA0B3343EA14534FEA0432019CEE
:1004E00043EA0603A4F10C040294009CCDE900B495
:1004F00000F042F903B0BDE8F08F00200146F9E7B3
:100500002DE9F04D81EA030404F0004B21F0004591
:1005100014464FF0000A23F0004150EA050220D0B3
:1005200054EA01021DD0C5F30A570246C5F313036E
:10053000C1F31300C1F30A5640F4801543F480134D
:10054000A7EB0608101BD64608F2FD3873EB050032
:1005500002D308F1010801E092185B41B8F1000FE5
:1005600003DA00200146BDE8F08D00204FF4801131
:10057000064684460EE0171B73EB050705D3121BD6
:1005800063EB050306434CEA010C49084FEA3000CF
:1005900092185B4150EA0107EDD152EA030012D0F4
:1005A00082EA040083EA0501084305D0101BAB4131
:1005B00006D20122002306E000224FF0004302E0B1
:1005C0006FF0010253101AEB06004CEB085110EBD0
:1005D0000A0041EB0B01BDE8F04D00F0BEB80EB5CE
:1005E000C10F80EAE0700844CA07002140F233439B
:1005F0008DE80E000A460B4600F0BEF803B000BDC1
:1006000000F0004230F000400AD0C10D01F56071E9
:10061000C0F3160042EA0151C20840071143704777
:1006200000200146704701F0004330B421F0004142
:1006300050EA010206D00A0DA2F56072C1F313015F
:10064000002A02DC30BC00207047440F44EAC10499
:10065000C100E01830BC00EBC25000F047B830B524
:100660000B46014600202022012409E021FA02F570
:100670009D4205D303FA02F5491B04FA02F528440A
:10068000151EA2F10102F1DC30BD202A04DB203A64
:1006900000FA02F1002070479140C2F1200320FAD5
:1006A00003F3194390407047202A04DB203A21FAD3
:1006B00002F00021704721FA02F3D040C2F120027B
:1006C0009140084319467047202A06DBCB17203A91
:1006D00041FA02F043EAE07306E041FA02F3D04047
:1006E000C2F1200291400843194670470029A8BF73
:1006F0007047401C490008BF20F00100704710B44B
:10070000B0FA80FC00FA0CF050EA010404BF10BCFF
:10071000704749B1CCF1200421FA04F411FA0CF12C
:1007200018BF012121430843A3EB0C01CB1D4FEA65
:1007300000614FEA102042BF002010BC704700EB60
:10074000C35010440029A4BF10BC7047401C49008E
:1007500008BF20F0010010BC704710B5141E73F1E3
:10076000000408DA401C41F1000192185B411A4371
:1007700001D120F0010010BD2DE9F04D92469B46BD
:1007800011B1B1FA81F202E0B0FA80F22032904663
:10079000FFF77BFF04460F4640EA0A0041EA0B01DF
:1007A00053465A46084313D0114653EA010019D064
:1007B000C8F140025046FFF777FF05460E46504607
:1007C00059464246FFF761FF084305D0012004E087
:1007D00020463946BDE8F08D0020054346EAE07624
:1007E0002C4337430A986305E40AA0EB0800002273
:1007F000FD0A44EA47540A3002D500200146E9E7E1
:10080000010510196941DDE9084500196941BDE894
:10081000F04DA2E7C1F30A52C1F3130140F2FF33D6
:1008200041F480119A4202DA00200146704740F2FA
:1008300033439A42A2F2334202DC5242FFF734BF02
:10084000FFF723BF30B5041E71F1000404DB4FF045
:100850000044404264EB0101141E73F1000405DB07
:100860001C464FF00043524263EB0403994208BF19
:10087000904230BD064C074D06E0E06840F00103B1
:1008800094E8070098471034AC42F6D3FFF786FC93
:1008900058850008788500082DE9F04D00231A4698
:1008A0001B1A8A4103DB00200146BDE8F08DC1F32D
:1008B0000A52C1F3130141F480154FF0000BD10728
:1008C00002D100186D41521E0027044640F2FF116C
:1008D000384601EB620A3E468046024600204FF44D
:1008E0008011FFF7E1FEC2197141BB1846EB010010
:1008F000B4EB030C75EB000C04D3E41A65EB0005B4
:1009000017460E46241908F101006D41804634282F
:10091000E3DDF91946EB0600091BA84103D24FF0AD
:10092000FF32134601E0002213461BEB070046EBA3
:100930000A51BDE8F04DFFF710BF000055494A6865
:1009400022F440324A604A6843681A434A600268A7
:10095000526822F4807203685A6002685368026920
:1009600043EA022203685A600268526822F0407229
:1009700003685A600268526883681A4303685A60C1
:100980000268926822F4006203689A6002689268C2
:10099000C3681A4303689A603F4B826A9A4218D030
:1009A0000268926822F0706203689A600268926836
:1009B000836A1A4303689A600268926822F0405280
:1009C00003689A6002689268C36A1A4303689A606F
:1009D0000BE00268926822F0706203689A60026815
:1009E000926822F0405203689A600268926822F08E
:1009F000020203689A6002689368027E43EA420238
:100A000003689A602022125CA2B10268526842F424
:100A1000006203685A600268526822F46042036808
:100A20005A6002685368426A521E43EA42320368BF
:100A30005A6005E00268526822F4006203685A6056
:100A40000268D26A22F470020368DA620268D36A2A
:100A5000828B521E43EA02520368DA62026892688D
:100A600022F4007203689A600268936890F830205C
:100A700043EA422203689A600268926822F4806224
:100A800003689A6002689368426943EA82220368B5
:100A90009A607047002301400100000F30B53649CD
:100AA000B1F90010344AB2F90220881800EBD07175
:100AB000491009B200EE901A9FED303AB0EE432A89
:100AC0009FED2F3AF0EE432A2E48D0ED013A2E4802
:100AD000B0F9000003EE100AB8EEC33A33EEC33AA1
:100AE00023EE023A2748B0F9120003EE900AF8EE1E
:100AF000E33A02EEA33AB0EE431A9FED243AB4EE85
:100B0000C31AF1EE10FA03DD9FED203AB0EE431A5E
:100B1000DFED1F1A1B48B0F916001E49B1F900108D
:100B200001EB810100EB410003EE100AB8EEC33A7D
:100B300023EE213ABDEEC30AB8EEE03A31EE033AB5
:100B4000F8EEC03A33EE233ABDEEC33A13EE100A84
:100B500004B2B8EEE03A31EE033AF8EEC03A33EEC2
:100B6000633ABDEEC33A13EE100A05B22946204699
:100B700006F0F6FC30BD0000100000200000164317
:100B80009A99193E60020020140000200000614480
:100B9000CDCCCC3E1600002010B50C4A111F081F0A
:100BA00005F08EFB80B901F00BFE08490839088377
:100BB00001F110020E31881E01F0B1FD034A0E3220
:100BC000911E881E01F0D3FD10BD000068020020B8
:100BD000F0B58DB004466678A0783038642110FBFB
:100BE00001F1E078303800EB800001EB4001207922
:100BF0003038084487B2412E01D1384600E07842AF
:100C000005B22A4605A1684602F07EFF684602F05A
:100C100031FF284606F09EFC0DB0F0BD53706420F5
:100C20003D2025640D0A000000BFFEE770477047B5
:100C300038B502460020009000BF92F83C00012821
:100C400001D1022038BD012082F83C0000BF0868B5
:100C5000092816D91068C0680C780A3C04EB4405D2
:100C60000724AC40A0431468E0600C780A3C04EB15
:100C700044048868A0401468E46820431468E06075
:100C800013E0106800690C7804EB44050724AC40BD
:100C9000A043146820610C7804EB44048868A040E9
:100CA000146824692043146820614868072817D213
:100CB0001068406B0C79641E04EB84051F24AC4063
:100CC000A04314686063088880B20C79641E04EB4A
:100CD0008404A0401468646B20431468606331E0AE
:100CE00048680D2817D21068006B0C79E41F04EBDC
:100CF00084051F24AC40A04314682063088880B298
:100D00000C79E41F04EB8404A0401468246B204396
:100D10001468206316E01068C06A0C790D3C04EB7F
:100D200084051F24AC40A0431468E062088880B2A8
:100D30000C790D3C04EB8404A0401468E46A204361
:100D40001468E062194B1A4C1068A04206D108687A
:100D5000122803D1586840F480005860144C106881
:100D6000A0421CD10868102802D00868112816D1AA
:100D7000586840F400005860086810280FD10D48EA
:100D800000680D4CB0FBF4F000EB800040000090D8
:100D900002E00098401E009000980028F9D100BFA2
:100DA000002082F83C0000BF00BF4BE70023014059
:100DB000002001406400002040420F0070B504464E
:100DC00000250CB9012070BD1549A06A884200D0E9
:100DD00000BF206C30B9204600F024F80020606489
:100DE00084F83C00206C00F0100088B9206C20F4DE
:100DF000885040F0020020642046FFF79FFD00204D
:100E00006064206C20F0020040F00100206400E0EB
:100E1000012500BF002084F83C0000BF2846D2E72F
:100E20000100000F10B586B00446142101A8FFF799
:100E300036FA1849206888422AD100BF0020009065
:100E40001548006840F4807013490860084600683F
:100E500000F48070009000BF00BF00BF0020009031
:100E60000D481438006840F001000B49143908603F
:100E70000846006800F00100009000BF00BF03209A
:100E8000019002900020039001A9044800F030F87E
:100E900006B010BD0020014044380240000002406E
:100EA000014691F83500022803D0802048650120D2
:100EB0007047052081F835000868006820F00100BF
:100EC0000A6810600020F3E770B5044600F008F9E6
:100ED00006462546681C10B104480078054400BF4A
:100EE00000F0FEF8801BA842FAD370BD600000201D
:100EF000F8B503460A460025002400200021CDE075
:100F0000012606FA01F5166806EA0504AC4273D11B
:100F10005668022E02D05668122E13D1CF0803F164
:100F2000200656F827004E07F70E0F26BE40B043A6
:100F30004F07FF0E1669BE403043CF0803F120066D
:100F400046F8270018684F000326BE40B0431679C4
:100F500006F003064F00BE40304318605668012E6D
:100F600008D05668022E05D05668112E02D0566859
:100F7000122E13D198684F000326BE40B0434F0095
:100F8000D668BE4030439860586801268E40B04312
:100F90001679C6F300168E4030435860D8684F006B
:100FA0000326BE40B0434F009668BE403043D86031
:100FB000566806F08056B6F1805F6ED100BF0026FD
:100FC0000096384E366846F48046364F3E603E46C0
:100FD000366806F48046009600BF00BF324E8F0888
:100FE00056F827008E07370F0F26BE40B0432F4E0E
:100FF000B34202D1002615E04FE02D4EB34201D19D
:1010000001260FE02B4EB34201D102260AE02A4E00
:10101000B34201D1032605E0284EB34201D1042694
:1010200000E007268F073F0FBE4030431E4E8F085B
:1010300046F82700224E3068A043566806F48036F2
:10104000B6F5803F00D120431D4E3060361D30681C
:10105000A043566806F40036B6F5003F00D12043A1
:10106000174E361D3060361D3068A043566806F4B2
:101070008016B6F5801F00D12043114E083630602F
:10108000361D3068A043566806F40016B6F5001FFA
:1010900000D120430A4E0C363060491C1029FFF461
:1010A0002FAFF8BD4438024008380140000002402C
:1010B0000004024000080240000C02400010024000
:1010C000003C0140024613690B400BB1012000E0D7
:1010D000002070470AB1816101E00B048361704711
:1010E000014800687047000058000020034800686D
:1010F00003490978084401490860704758000020F6
:101100006000002010B50D48006840F400700B49E5
:1011100008600846006840F480600860084600687F
:1011200040F480700860032000F0A2F8002000F076
:1011300007F800F02BF8002010BD0000003C024032
:1011400070B504460E4800784FF47A71B1FBF0F0A8
:101150000C490968B1FBF0F5284600F0FFFB08B127
:10116000012070BD102C07D200222146501E00F035
:1011700041F80548046001E00120F2E70020F0E7B3
:1011800060000020640000205C00002008B500BF63
:10119000002000900E48006840F480400C49086030
:1011A0000846006800F48040009000BF00BF00BF08
:1011B00000200090081F006840F08050091F086060
:1011C0000846006800F08050009000BF00BF08BDD6
:1011D0004438024001460846002809DB00F01F039E
:1011E00001229A4043099B0003F1E023C3F8002148
:1011F00000BF70472DE9F05F80460D461646002778
:1012000002F0AEFC074639462A46334601F0070095
:10121000C0F1070ABAF1040F02D94FF0040A01E045
:10122000C0F1070AD14600F1040ABAF1070F02D251
:101230004FF0000A01E0A0F1030AD4464FF0010A82
:101240000AFA09FAAAF1010A0AEA020A0AFA0CFAE7
:101250004FF0010B0BFA0CFBABF1010B0BEA030B8C
:101260004AEA0B042146404602F082FCBDE8F09FAA
:1012700000BF00F00702064B19684FF6FF03194044
:10128000044B0B4343EA0221014B196000BF704736
:101290000CED00E00000FA0570B504460D460CB9EF
:1012A000012070BD5848006800F00F00A84209D224
:1012B00055490D700846006800F00F00A84201D0A3
:1012C0000120EEE7207800F0020002281DD12078EE
:1012D00000F00400042805D14C48006840F4E050B8
:1012E0004A490860207800F00800082805D14748DE
:1012F000006840F46040454908604448006820F0B8
:10130000F000A168084341490860207800F001001E
:10131000A8B36068012807D13C4808380068C0F3CA
:101320004040B8B90120BCE76068022802D060687C
:10133000032807D1354808380068C0F3406048B931
:101340000120AEE7314808380068C0F3400008B912
:101350000120A6E72D48006820F0030061680843DB
:101360002A490860FFF7BCFE064609E0FFF7B8FE11
:10137000801B41F28831884202D9032091E707E0BF
:101380002248006800F00C006168B0EB810FEDD1DD
:101390001D48006800F00F00A84209D91A490D70D5
:1013A0000846006800F00F00A84201D0012078E74D
:1013B000207800F00400042807D11448006820F4C5
:1013C000E050E168084311490860207800F0080007
:1013D000082808D10D48006820F46040216940EADF
:1013E000C1000A49086000F03DF808490968C1F3E6
:1013F0000311074A515CC840064908600020FFF706
:101400009FFE00204DE70000003C024008380240EB
:10141000FA8300086400002001480068704700005B
:101420006400002000B5FFF7F7FF04490968C1F325
:101430008221034A515CC84000BD000008380240C8
:101440000A84000800B5FFF7E7FF04490968C1F303
:101450004231034A515CC84000BD000008380240D8
:101460000A8400082DE9F047002400250026A14643
:101470002548006800F00C0020B1042805D0082899
:101480003AD105E0DFF8849039E0DFF8849036E067
:101490001D48001F006800F03F041B48001F006843
:1014A00000F4800078B11A481749091F0968C1F390
:1014B0008811A0FB01700146224600233846FEF742
:1014C00085FE05460EE011480F49091F0968C1F362
:1014D0008811A0FB01700146224600233846FEF722
:1014E00075FE05460848001F0068C0F30140401C17
:1014F0004600B5FBF6F902E0DFF8109000BF00BF30
:101500004846BDE8F0870000083802400024F40097
:1015100040787D01F8B504460CB90120F8BD20786B
:1015200000F00100002874D0F948006800F00C00B9
:1015300004280DD0F648006800F00C00082813D1EC
:10154000F348001F006800F48000B0F5800F0BD155
:10155000EF4808380068C0F34040002859D0606860
:10156000002856D10120D9E700BF6068B0F5803F60
:1015700008D1E7480838006840F48030E449083969
:1015800008601EE06068B0F5A02F0DD1E048083873
:10159000006840F48020DE49083908600846006889
:1015A00040F4803008600CE0D9480838006820F426
:1015B0008030D749083908600846006820F4802048
:1015C000086000BF606890B1FFF78AFD054606E03D
:1015D000FFF786FD401B642801D903209EE7CC4815
:1015E00008380068C0F340400028F1D011E0FFF750
:1015F00077FD054606E0FFF773FD401B642801D91F
:1016000003208BE7C24808380068C0F34040002838
:10161000F1D1207800F0020002285FD1BC480068B8
:1016200000F00C0058B1BA48006800F00C0008281F
:101630001CD1B748001F006800F48000B0B9B4485E
:1016400008380068C0F3400020B1E068012801D0EC
:10165000012063E7AE480838006820F0F8002169EF
:1016600040EAC100AA490839086037E0E06800B3E1
:101670000120A8490860FFF733FD054606E0FFF7A3
:101680002FFD401B022801D9032047E7A048083856
:101690000068C0F340000028F1D09D480838006879
:1016A00020F0F800216940EAC10099490839086032
:1016B00014E0002097490860FFF712FD054606E098
:1016C000FFF70EFD401B022801D9032026E79048B2
:1016D00008380068C0F340000028F1D1207800F0FD
:1016E000080008282CD16069A8B101208A49086047
:1016F000FFF7F6FC054606E0FFF7F2FC401B022868
:1017000001D903200AE782486C300068C0F340002A
:101710000028F1D014E000207F490860FFF7E0FCCA
:10172000054606E0FFF7DCFC401B022801D9032038
:10173000F4E677486C300068C0F340000028F1D12F
:10174000207800F00400042870D10026704838305A
:10175000006800F0805090B900BF002000906C48F5
:101760003830006840F080506949383108600846D8
:10177000006800F08050009000BF00BF012667485D
:10178000006800F48070B0B96448006840F480706C
:1017900062490860FFF7A4FC054606E0FFF7A0FCDD
:1017A000401B022801D90320B8E65C48006800F419
:1017B00080700028F2D000BFA068012808D15448EA
:1017C0006830006840F001005149683108601DE050
:1017D000A06805280DD14E486830006840F004002C
:1017E0004B49683108600846006840F00100086015
:1017F0000CE047486830006820F001004449683137
:1018000008600846006820F00400086000BFA06877
:10181000A8B1FFF765FC054609E0FFF761FC401B36
:1018200041F28831884202D9032077E626E0384821
:1018300068300068C0F340000028EED013E0FFF7E6
:101840004FFC054608E0FFF74BFC401B41F2883196
:10185000884201D9032061E62D4868300068C0F352
:1018600040000028EFD1012E07D129483830006808
:1018700020F0805026493831086000BFA069B8B315
:101880002348006800F00C0008285ED0A0690228F8
:1018900046D100201F490866FFF722FC054606E0F6
:1018A000FFF71EFC401B022801D9032036E618482A
:1018B00008380068C0F340600028F1D1D4E907017E
:1018C0000843616A40EA81110122A06AC2EB50001C
:1018D00041EA00412C20005D41EA00600C49091FEB
:1018E000086001200B490866FFF7FAFB054607E090
:1018F0002DE0FFF7F5FB401B022801D903200DE680
:10190000034808380068C0F340600028F1D01EE0AA
:101910000838024000004742800E474200700040F5
:1019200000200C490866FFF7DBFB054606E0FFF7E1
:10193000D7FB401B022801D90320EFE506480068C9
:10194000C0F340600028F2D101E00120E6E500206C
:10195000E4E50000000047420038024070B504464C
:101960002546681EB0F1807F01D301200FE0681E7C
:101970004FF0E02148610F214FF0FF3002F0F8F8FE
:1019800000204FF0E021886107200861002070BD31
:101990007047704710B50346002200BF93F83C0023
:1019A000012801D1022010BD012083F83C0000BFB6
:1019B00022F0FF00CC6840EA040222F440708C68F8
:1019C00040EA040222F480604C6840EA040222F4F7
:1019D00000600C6840EA040222F480500C6940EA7E
:1019E000040222F400504C6940EA040222F48040D0
:1019F000CC6940EA04021868426400BF002083F802
:101A00003C0000BF00BFCEE710B5024600BF92F811
:101A10003C00012801D1022010BD012082F83C00C9
:101A200000BF022082F83D00106843681068846897
:101A300023F070030868034324F0800448680443DB
:101A40001068436010688460012082F83D0000BF88
:101A5000002082F83C0000BF00BFDDE710B504465F
:101A60000CB9012010BD94F83D0028B9002084F87D
:101A70003C00204600F00CF8022084F83D00211DB7
:101A8000206801F0BBFB012084F83D000020E9E75D
:101A900038B504461C492068884218D100BF002090
:101AA00000901A48006840F0010018490860084694
:101AB000006800F00100009000BF00BF0022114646
:101AC0001A20FFF797FB1A20FFF784FB1BE0104951
:101AD0002068884217D100BF002000900B480068A2
:101AE00040F48020094908600846006800F480201E
:101AF000009000BF00BF002211461A20FFF77AFBBA
:101B00001A20FFF767FB38BD00000140443802404F
:101B1000004801402DE9F04104460D4600BF94F80D
:101B20003C00012802D10220BDE8F081012084F8A8
:101B30003C0000BF022084F83D002068866826F043
:101B4000770626F47F46206886602868502833D0C0
:101B50000CDC202850D004DC00284BD0102851D1B8
:101B600049E0302849D040284CD139E060282DD0B8
:101B7000702807D0B0F5805F03D0B0F5005F41D189
:101B80000DE040E0D5E902136A68206801F099FB96
:101B90002068866846F077062068866033E0D5E9DD
:101BA00002136A68206801F08CFB2068806840F4AA
:101BB00080402168886026E0EA686968206801F052
:101BC00051FC5021206801F087FB1CE0EA6869683D
:101BD000206801F05AFC6021206801F07DFB12E0D2
:101BE000EA686968206801F03DFC4021206801F046
:101BF00073FB08E000BF00BF00BF2968206801F048
:101C00006BFB00E000BF00BF012084F83D0000BF77
:101C1000002084F83C0000BF00BF85E72DE9F041BB
:101C200004460D4614B90120BDE8F08194F83D004A
:101C300028B9002084F83C00204600F047F8022034
:101C400084F83D002068806844F2070188432168D9
:101C50008860211D206801F0D1FA2068D0F8088042
:101C6000206886692068076A286840EA080840F208
:101C700003308643A969A86840EA0120064340F67C
:101C80000C4086434FF2F0008643E969E86840EA79
:101C90000120064328690001296A40EA0130064311
:101CA00027F0220727F088076969686840EA011071
:101CB00007432068C0F808802068866120680762B2
:101CC000012084F83D000020AEE7000010B586B08A
:101CD0000446142101A8FEF7E2FA2068B0F1804F13
:101CE0004DD100BF002000904048006840F0010046
:101CF0003E4908600846006800F00100009000BFFF
:101D000000BF00BF0020009038481038006840F045
:101D100001003649103908600846006800F00100EB
:101D2000009000BF00BF00BF002000900846006880
:101D300040F0020008600846006800F002000090D1
:101D400000BF00BF202001900220029000200390DD
:101D5000032004900120059001A92548FFF7C8F849
:101D6000082001900220029000200390032004909C
:101D70000120059001A91F48FFF7BAF833E01E497A
:101D8000206888422FD100BF0020009017480068CB
:101D900040F00200154908600846006800F00200A3
:101DA000009000BF00BF00BF002000900F48103817
:101DB000006840F001000D491039086008460068CD
:101DC00000F00100009000BF00BFC0200190022081
:101DD000029000200390032004900220059001A9A6
:101DE0000348FFF785F806B010BD000040380240F8
:101DF00000000240000402400004004030B50446E8
:101E00000D4615B1042D0CD105E0012200212068FA
:101E100001F046FA10E001220421206801F040FAA6
:101E20000AE001220021206801F03AFA012204218F
:101E3000206801F035FA00BF00BF2068006840F05C
:101E4000010021680860002030BD704710B50446CD
:101E500020680069C0F34000D8B12068C068C0F3B2
:101E60004000B0B16FF002002168086101202077C6
:101E70002068806900F0030018B12046FFF7E5FFF5
:101E800005E0204600F0EEF8204600F08BF9002037
:101E9000207720680069C0F38000D8B12068C0684E
:101EA000C0F38000B0B16FF0040021680861022027
:101EB00020772068806900F4407018B12046FFF751
:101EC000C4FF05E0204600F0CDF8204600F06AF996
:101ED0000020207720680069C0F3C000D8B12068D6
:101EE000C068C0F3C000B0B16FF00800216808619D
:101EF000042020772068C06900F0030018B1204654
:101F0000FFF7A3FF05E0204600F0ACF8204600F004
:101F100049F90020207720680069C0F30010D8B18B
:101F20002068C068C0F30010B0B16FF010002168E5
:101F30000861082020772068C06900F4407018B15B
:101F40002046FFF782FF05E0204600F08BF8204690
:101F500000F028F9002020772068006900F00100D7
:101F600058B12068C06800F0010030B16FF0010086
:101F700021680861204600F03DF920680069C0F33F
:101F8000C01058B12068C068C0F3C01030B16FF005
:101F90008000216808612046FFF7FAFC206800698C
:101FA000C0F3801058B12068C068C0F3801030B111
:101FB0006FF0400021680861204600F01CF920689D
:101FC0000069C0F3401058B12068C068C0F34010E9
:101FD00030B16FF02000216808612046FFF7D9FC7E
:101FE00010BD000010B586B00446142101A8FEF70C
:101FF00056F91949206888422BD100BF0020009073
:102000001648006840F0010014490860084600685E
:1020100000F00100009000BF00BF88150190022071
:1020200002900020039004900120059001A90C4823
:10203000FEF75EFF4FF460600190022002900020E6
:102040000390032004900120059001A90448FEF7A5
:102050004FFF06B010BD00000000014030380240C4
:1020600000000240704770B504460D46164600BF9A
:1020700094F83C00012801D1022070BD012084F8B1
:102080003C0000BF022084F83D0036B1042E1BD076
:10209000082E31D00C2E5ED145E02946206801F093
:1020A00025F92068806940F008002168886120686F
:1020B000806920F0040021688861206880692969AE
:1020C00008432168886147E02946206801F03EF90D
:1020D0002068806940F40060216888612068806918
:1020E00020F480602168886120688069296940EA5D
:1020F0000120216888612FE02946206801F05AF903
:102100002068C06940F008002168C8612068C06983
:1021100020F004002168C8612068C069296908436B
:102120002168C86118E02946206801F077F9206825
:10213000C06940F400602168C8612068C06920F46B
:1021400080602168C8612068C069296940EA01206F
:102150002168C86100E000BF00BF012084F83D0095
:1021600000BF002084F83C0000BF00BF85E710B529
:1021700004460CB9012010BD94F83D0028B9002098
:1021800084F83C00204600F00CF8022084F83D0062
:10219000211D206801F032F8012084F83D00002064
:1021A000E9E770477047000070B504460E4601220B
:1021B0003146206801F074F80D492068884201D149
:1021C000012000E0002028B12068406C40F400406D
:1021D000216848642068806800F00705062D05D056
:1021E0002068006840F0010021680860002070BD90
:1021F0000000014070477047704700002DE9F0472C
:102200000446206805682068C668206847694FF062
:102210000008C14605F00F08B8F1000F0AD105F01B
:10222000200038B106F0200020B1204601F0CEF9A0
:10223000BDE8F087B8F1000F6ED007F0010018B9C3
:1022400006F49070002867D005F0010030B106F464
:10225000807018B1E06B40F00100E06305F004000D
:1022600030B107F0010018B1E06B40F00200E0630C
:1022700005F0020030B107F0010018B1E06B40F04A
:102280000400E06305F0080030B107F0010018B168
:10229000E06B40F00800E063E06B70B305F02000F5
:1022A00028B106F0200010B1204601F08FF9206817
:1022B0004069C0F38019E06B00F0080010B9B9F173
:1022C000000F23D0204601F061F92068406900F03A
:1022D0004000402816D12068406920F04000216865
:1022E0004861606B50B11748616B0865606BFEF721
:1022F000D7FD10B1606B016D88470CE02046FFF7F9
:102300007BFF08E02046FFF777FF04E02046FFF759
:1023100073FF0020E0638BE705F0800030B106F02A
:10232000800018B1204601F059FB81E705F040001C
:1023300030B106F0400018B1204601F037F977E7D8
:1023400000BF75E77935000810B504460CB90120C7
:1023500010BDA06900B100E000BF94F8390028B9B1
:10236000002084F83800204600F028F8242084F863
:1023700039002068C06820F400502168C8602046F9
:1023800001F078F92068006920F490402168086124
:102390002068406920F02A00216848612068C068F0
:1023A00040F400502168C8600020E063202084F8D9
:1023B000390084F83A000020CAE7000010B586B062
:1023C0000446142101A8FDF76AFF1F4920688842CE
:1023D00037D100BF002000901C48006840F4003056
:1023E0001A4908600846006800F40030009000BFF9
:1023F00000BF00BF0020009014481038006840F073
:1024000001001249103908600846006800F0010018
:10241000009000BF00BF0C2001900220029001201C
:102420000390032004900720059001A90848FEF7B7
:102430005FFD002211462620FEF7DCFE2620FEF777
:10244000C9FE06B010BD0000004400404038024004
:10245000000002407047704700BFFEE710B5002241
:1024600040210D48FEF736FE00F052F9002280218F
:102470000948FEF72FFE00F04BF9012240210648E3
:10248000FEF728FE00F044F9002240210248FEF742
:1024900021FE00F03DF910BD0004024000B587B0F8
:1024A00000BF002001901648006840F00200144967
:1024B00008600846006800F00200019000BF00BFFD
:1024C0000022C0210F48FEF705FE40200290112097
:1024D0000390002004900320059002A90948FEF70C
:1024E00007FD80200290112003900020049003201B
:1024F000059002A90348FEF7FBFC07B000BD0000F1
:10250000303802400004024010B5002240210D483E
:10251000FEF7E0FD00F0FCF8012280210948FEF7FB
:10252000D9FD00F0F5F8012240210648FEF7D2FD62
:1025300000F0EEF8002240210248FEF7CBFD00F04B
:10254000E7F810BD0004024070B508250024012200
:1025500080211348FEF7BEFD16E06006040E00223F
:1025600040210F48FEF7B6FD00F0D2F801224021CD
:102570000B48FEF7AFFD00F0CBF880210848FEF7CE
:10258000A1FD08B144F00104281EA5F10101CDB25E
:10259000E3D1002240210248FEF79CFD204670BD99
:1025A0000004024070B5044608251FE000224021C7
:1025B0001448FEF78FFD00F0ABF804F0800028B15E
:1025C000012280210F48FEF785FD04E000228021D2
:1025D0000C48FEF77FFD6006040E00F099F801221A
:1025E00040210848FEF776FD00F092F8281EA5F17C
:1025F0000101CDB2DAD1002240210248FEF76AFD86
:1026000070BD00000004024010B501228021144872
:10261000FEF760FD012240211148FEF75BFD00F04E
:1026200077F880210E48FEF74DFD08B9002010BD57
:10263000002280210A48FEF74DFD00F069F8802154
:102640000748FEF73FFD08B10020F0E70022802197
:102650000348FEF73FFD00F05BF80120E7E70000CC
:102660000004024010B5002240210D48FEF732FD63
:1026700000F04EF8002280210948FEF72BFD00F003
:1026800047F8012240210648FEF724FD00F040F8FB
:10269000012280210248FEF71DFD00F039F810BD2F
:1026A0000004024010B50024002240211748FEF724
:1026B00011FD00F02DF8012280211448FEF70AFDDB
:1026C00000F026F8012240211048FEF703FD00F03B
:1026D0001FF80CE0002240210C48FEF7FBFC00F044
:1026E00017F8601CC4B2FA2C01DD002010BD802157
:1026F0000648FEF7E7FC0028ECD100224021034801
:10270000FEF7E8FC00F004F80120EFE700040240C7
:10271000052001E0411EC8B20028FBD170472DE919
:10272000FC4104460D4616466B4606223B216820B6
:1027300000F088F80746BFB99DF801009DF8001029
:1027400040EA012000B220809DF803009DF80210AD
:1027500040EA012000B228809DF805009DF8041091
:1027600040EA012000B230803846BDE8FC812DE906
:10277000FC4104460D4616466B460622432168205E
:1027800000F060F80746BFB99DF801009DF8001001
:1027900040EA012000B220809DF803009DF802105D
:1027A00040EA012000B228809DF805009DF8041041
:1027B00040EA012000B230803846BDE8FC810000CC
:1027C00010B52DED088B82B001AB022241216820AB
:1027D00000F038F89DF805009DF8041040EA01204B
:1027E00004B22046FDF7FBFE41EC1B0B9FED100BE6
:1027F00053EC102BFDF784FE41EC1A0B9FED0E0BF2
:1028000053EC102BFDF763FD41EC190BFDF70BFFAB
:1028100008EE100A9FED0A0A28EE000ABDEEC00A73
:1028200010EE100A00B202B0BDEC088B10BD000023
:102830000000000000407540A4703D0AD7434240AC
:102840000000C8422DE9F04106460F4614461D46D9
:10285000FFF7DAFE002141EA4601C8B2FFF7A2FE07
:10286000FFF720FF20B9FFF7FDFE0120BDE8F08152
:102870003846FFF797FEFFF715FFFFF7C5FE01216A
:1028800001EB4601C8B2FFF78DFEFFF70BFF0FE02B
:10289000012C05D1FFF758FE2870FFF735FE04E044
:1028A000FFF752FE2870FFF7D9FD601EC4B26D1C01
:1028B000002CEDD1FFF7D6FE0020D7E72DE9F0413F
:1028C00005460E4617469846FFF79EFE002141EA50
:1028D0004501C8B2FFF766FEFFF7E4FE20B9FFF737
:1028E000C1FE0120BDE8F0813046FFF75BFEFFF737
:1028F000D9FE00240CE018F80400FFF753FEFFF7A0
:10290000D1FE18B9FFF7AEFE0120EBE7601CC4B2A0
:10291000BC42F0DBFFF7A6FE0020E3E71FB5002076
:1029200000900190029003901548164908604FF4FA
:10293000803048600021134881600161017680F891
:102940002010C162104981620021C1600121C16172
:10295000002180F8301001214161FEF72FFA08B103
:10296000FEF765F901200090019000200290694671
:102970000448FEF75DF908B1FEF759F91FBD0000E4
:1029800000200140700000200100000F00B587B05A
:10299000142102A8FDF783FC00BF002001902F48FE
:1029A000006840F004002D4908600846006800F007
:1029B0000400019000BF00BF00BF00200190084646
:1029C000006840F0800008600846006800F0800061
:1029D000019000BF00BF00BF0020019008460068C2
:1029E00040F0010008600846006800F00100019016
:1029F00000BF00BF00BF002001900846006840F003
:102A0000020008600846006800F00200019000BF64
:102A100000BF00224FF400511148FEF75BFB01227A
:102A2000C0211048FEF756FB4FF4005002900120E1
:102A3000039000200490059002A90948FEF758FA77
:102A4000C0200290112003900020049003200590E4
:102A500002A90448FEF74CFA07B000BD3038024026
:102A6000000802400004024010B50A480A49086004
:102A7000532048600021084881604FF47A71C1609A
:102A8000002101618161FEF7E9FF08B1FEF7CFF88F
:102A900010BD0000004801407801002000B595B04D
:102AA000002011901290139014900F9010901C2100
:102AB00008A8FDF7F4FB20216846FDF7F0FB374836
:102AC000374908600120486000213548816040F2A4
:102AD000E731C1600021016141618161FEF7BEFF04
:102AE00008B1FEF7A4F84FF48050119011A92C48BA
:102AF000FFF710F808B1FEF79AF82948FFF737FBFF
:102B000008B1FEF794F800200F9010900FA9244808
:102B1000FEF77AFF08B1FEF78AF8602008900020DF
:102B200009900A900B900C900D900E90002208A92D
:102B30001B48FFF798FA08B1FEF779F8042208A9B4
:102B40001748FFF790FA08B1FEF771F8082208A9B4
:102B50001348FFF788FA08B1FEF769F80C2208A9B4
:102B60000F48FFF780FA08B1FEF761F800200090E7
:102B700001900290039004904FF4005005900020C3
:102B8000079069460648FEF705FF08B1FEF74FF8C3
:102B90000348FFF727FA15B000BD00000000014010
:102BA000B800002000B58BB0242102A8FDF777FB08
:102BB0000020009001904FF08040184908600020EC
:102BC0004860002115488160491EC16000210161F3
:102BD00081610120029000200390012004900020D8
:102BE00005900F20069000200790012008900020FB
:102BF00009900F200A9002A90848FFF70FF808B1C2
:102C0000FEF715F800200090019069460348FEF792
:102C1000FBFE08B1FEF70BF80BB000BDF80000207A
:102C200000B58BB0242102A8FDF739FB00200090ED
:102C30000190194819490860002048600021174890
:102C400081604FF6FF71C160002101618161012047
:102C500002900020039001200490002005900F2096
:102C600006900020079001200890002009900F2076
:102C70000A9002A90948FEF7D1FF08B1FDF7D7FF76
:102C800000200090019069460448FEF7BDFE08B19F
:102C9000FDF7CDFF0BB000BD00040040380100205F
:102CA00010B50B480B4908604FF4E1304860002133
:102CB00008488160C16001610C214161002181618E
:102CC000C161FFF741FB08B1FDF7B1FF10BD000086
:102CD00000440040B801002000BFFEE710B52DED14
:102CE000088B00241EE104EB8400964901EB800070
:102CF00090ED020A04EB840001EB800080ED030AF2
:102D000004EB840001EB800090ED000A04EB8400EA
:102D100001EB800080ED020A8B4800EB840090ED0F
:102D2000000ADFED8A0A30EE600A10EE101A08463B
:102D3000FDF766FC41EC1B0B9FED850B53EC102B54
:102D4000FDF76CFB41EC190B04EB84007D4A02EBB0
:102D5000800090ED000A10EE101A0846FDF750FCB6
:102D600041EC1B0B9FED7C0B53EC102BFDF756FB3E
:102D700041EC1A0B53EC192BFDF7A9FA41EC180B97
:102D8000FDF751FC04EB84016E4A42F8210004EB8C
:102D90008400114601EB800090ED000A704800EBC2
:102DA0008400D0ED000AB2EE041A00EEC10A04EB72
:102DB000840001EB8000D0ED010A30EE200A04EB24
:102DC000840001EB800080ED010A04EB840001EB3C
:102DD000800090ED010ADFED630AB4EEE00AF1EE47
:102DE00010FA07DD9FED5F0A04EB840001EB800021
:102DF00080ED010A04EB8400524901EB800090ED64
:102E0000010ADFED590AB4EEE00AF1EE10FA07D23A
:102E10009FED550A04EB840001EB800080ED010A70
:102E2000524890ED000A04EB8400464901EB800013
:102E3000D0ED000A20EE200A4C48D0ED010A04EB48
:102E4000840001EB800090ED011A00EE810A04EB92
:102E5000840001EB8000D0ED000A04EB840001EB5C
:102E6000800090ED021AF0EE001A41EEC10A04EB68
:102E7000840001EB800090ED031A70EE810A3B485C
:102E800090ED021A20EE811A04EB840001EB800021
:102E9000D0ED000ADFED361AF4EEE10AF1EE10FA99
:102EA00001D2012000E0002000EE900AF8EEE00AD6
:102EB00001EE200ABDEEC00A04EB8400214901EBBB
:102EC000800080ED040A04EB840001EB80000069BF
:102ED000B0F57A7F02DB40F2E73005E004EB8400D6
:102EE000184901EB8000006904EB8401154A02EBEC
:102EF0008101086104EB8400114601EB8000006948
:102F000010F57A7F01DC1B4805E004EB84000D49D5
:102F100001EB8000006904EB84010A4A02EB8101A5
:102F20000861641C022CFFF6DEAE0648008A00B27F
:102F3000114908800348808C00B24880BDEC088BA2
:102F400010BD00007C0200200800002000000000EE
:102F5000333333333333D33F666666666666E63FA4
:102F60000000002000401C4600401CC6A877000856
:102F70000000C84219FCFFFF100000202DE9F047B7
:102F80008EB00446677894F80580A07830386421C4
:102F900010FB01F1E078303800EB800001EB4001DC
:102FA0002079303808441FFA80F9A079303864213C
:102FB00010FB01F1E079303800EB800001EB4001BB
:102FC000207A303808441FFA80FA412F01D1484650
:102FD00001E0C9F1000005B2B8F1410F01D150463E
:102FE00001E0CAF1000006B233462A4606A101A854
:102FF00000F08AFD01A800F03DFD3146284600F0B2
:103000004FF80EB0BDE8F0875031203D2025642CEC
:103010005032203D2025640D0A000000704700005A
:1030200010B50F480068401C0D490860084600684C
:103030000A2805D300200860FDF7AEFDFDF72EFD40
:1030400008480068401C0749086008460068642872
:1030500005D30020086004F023FBFFF73FFE10BDFE
:103060001C00002018000020704710B5044694F89A
:103070006400012811D120784D2802D0562808D1AB
:1030800003E02046FFF77AFF03E02046FDF7A0FDAE
:1030900000BF00BF002084F8640010BD704700002E
:1030A00000EE100AB8EEC00A044A82ED000A00EEF3
:1030B000101AB8EEC00A82ED010A70470000002025
:1030C00010B500F0F6F9FEF711F810BD00B593B099
:1030D000302107A8FDF7E3F8142102A8FDF7DFF877
:1030E00000BF002001902448006840F08050224931
:1030F00008600846006800F08050019000BF00BFE3
:1031000000BF002001901D48006820F4404040F4BA
:1031100000401A4908600846006800F440400190E9
:1031200000BF00BF012007900004089002200D900E
:1031300041050E9119210F91A821109102211191A1
:103140000421129107A8FEF7E5F908B1FDF76FFD1C
:103150000F20029002200390002004904FF4805032
:10316000059000200690022102A8FEF795F808B10C
:10317000FDF75DFD13B000BD403802400070004017
:103180001448006840F47000124908601248006852
:1031900040F001001049086000200F490831086024
:1031A0000D4800680D4908400B4908600C48091D8E
:1031B0000860081F006820F48020091F08600020B4
:1031C00005490C3108604FF0006002498039086001
:1031D0007047000088ED00E000380240FFFFF6FE77
:1031E0001030002410B50348FEF730FE0248FEF709
:1031F0002DFE10BDB80000207801002010B5026837
:10320000204B98420BD0B0F1804F08D01E4B984213
:1032100005D01E4B984202D01D4B984203D122F09C
:1032200070024B681A43174B984214D0B0F1804F8C
:1032300011D0154B98420ED0144B98420BD0144B22
:10324000984208D0134B984205D0134B984202D0B5
:10325000124B984203D122F44072CB681A4322F0F9
:1032600080034C6943EA040202608B68C3620B6806
:103270008362044B984201D10B69036301234361CC
:1032800010BD0000000001400004004000080040A4
:10329000000C004000400140004401400048014053
:1032A00030B501F01F05012404FA05F3046A9C43BC
:1032B0000462046A01F01F0502FA05F52C4304625A
:1032C00030BD30B50C46816821F47F4142EA0325C8
:1032D00025432943816030BD0A46816821F0700191
:1032E00042F00703194381607047000030B5056A5A
:1032F00025F001050562026A4368846924F07004C0
:1033000024F003040D682C4322F002028D682A4346
:103310000D4DA84206D100BF22F00802CD682A4315
:1033200022F00402084DA84207D123F4807323F44D
:1033300000734D692B438D692B43436084614D6855
:103340004563026230BD00000000014030B5056AEF
:1033500025F010050562026A4368846924F4E0449C
:1033600024F440740D6844EA052422F020028D689C
:1033700042EA05120E4DA84207D100BF22F080029A
:10338000CD6842EA051222F04002094DA84209D157
:1033900023F4806323F400634D6943EA85038D6958
:1033A00043EA8503436084614D688563026230BDF2
:1033B0000000014030B5056A25F480750562026A97
:1033C0004368C46924F0700424F003040D682C439E
:1033D00022F400728D6842EA05220F4DA84207D1FF
:1033E00000BF22F40062CD6842EA052222F4806226
:1033F000094DA84209D123F4805323F400534D69A9
:1034000043EA05138D6943EA05134360C4614D68BF
:10341000C563026230BD00000000014030B5056A9E
:1034200025F480550562036A4468C26922F4E042CB
:1034300022F440720D6842EA052223F400538D689D
:1034400043EA0533064DA84204D124F480444D6973
:1034500044EA85144460C2614D680564036230BD6E
:103460000000014030B50B461446026A056A25F09B
:1034700001050562816921F0F00141EA041122F0A1
:103480000A021A438161026230BD30B50B46144610
:10349000056A25F0100505628169026A21F4704110
:1034A00041EA043122F0A00242EA03128161026281
:1034B00030BD10B5FFF7B4FD10BD10B501F00CFD27
:1034C00010BD000010B58EB0012400212048FEF789
:1034D0006BFE04211E48FEF767FE08211C48FEF71C
:1034E00063FE0C211A48FEF75FFE3C211948FEF7E7
:1034F00085FC3C211848FEF781FC18480068C0682C
:1035000040F0200015490968C86014480068C06888
:1035100020F0100011490968C8600DE002F0DCFFDE
:10352000044622460EA101A800F0EEFA01A800F020
:10353000A1FA6420FDF7C8FC002CEFD14FF47A709B
:10354000FDF7C2FC152003F0FFFF0EB010BD000018
:10355000B8000020F800002038010020B801002049
:10356000494D5520496E697420636F6465203A2087
:103570002564200D0A00000070B50546AC6B0020E4
:10358000E085E0842046FEF737FE70BD0168C9681B
:1035900021F490710268D1600168496921F001014C
:1035A00002685161202180F83A10704710B5044636
:1035B0002068C06820F040002168C860202084F89E
:1035C00039002046FEF747FF002010BD70B50446C5
:1035D00094F83A0022284AD1A068B0F5805F13D150
:1035E000A56A206940B920684068C0F308002880B7
:1035F000A06A801CA06219E020684068C0B22880E0
:10360000A06A401CA06211E0206938B920684068B7
:10361000C1B2A26A501CA062117007E02068406825
:1036200000F07F01A26A501CA0621170E08D401E64
:1036300080B2E085C8B92068C06820F02000216809
:10364000C8602068C06820F480702168C860206865
:10365000406920F0010021684861202084F83A0088
:103660002046FEF7F7FE002070BD0020FCE7022098
:10367000FAE700002DE9F04104462068006920F4D3
:103680004050E1680843216808612169A068084347
:1036900061690843E16940EA01052068C06849F2B0
:1036A0000C61884328432168C8602068406920F481
:1036B0004070A169084321684861E069B0F5004F96
:1036C0007ED1C4492068884203D0C349206888421B
:1036D0005DD1FDF7B7FE00EBC00101EB00106168A2
:1036E0004900B0FBF1F06421B0FBF1F00601FDF7F9
:1036F000A9FE00EBC00101EB001061684900B0FBBE
:10370000F1F7FDF79FFE00EBC00101EB00106168CF
:103710004900B0FBF1F06421B0FBF1F000EBC00117
:1037200001EB0010A7EB8000322101EBC000642107
:10373000B0FBF1F000F0F80006EB4006FDF782FE6A
:1037400000EBC00101EB001061684900B0FBF1F72C
:10375000FDF778FE00EBC00101EB00106168490045
:10376000B0FBF1F06421B0FBF1F000EBC00101EB24
:103770000010A7EB8000322101EBC0006421B0FBF8
:10378000F1F000F0070030442168886020E1FDF787
:1037900049FE00EBC00101EB001061684900B0FB7D
:1037A000F1F06421B0FBF1F00601FDF73BFE00EB08
:1037B000C00101EB001061684900B0FBF1F700E0C7
:1037C00045E0FDF72FFE00EBC00101EB0010616842
:1037D0004900B0FBF1F06421B0FBF1F000EBC00157
:1037E00001EB0010A7EB8000322101EBC000642147
:1037F000B0FBF1F000F0F80006EB4006FDF712FE1A
:1038000000EBC00101EB001061684900B0FBF1F76B
:10381000FDF708FE00EBC00101EB001061684900F4
:10382000B0FBF1F06421B0FBF1F000EBC00101EB63
:103830000010A7EB8000322101EBC0006421B0FB37
:10384000F1F000F00700304421688860C0E0614971
:103850002068884203D06049206888425CD1FDF727
:10386000F1FD00EBC00101EB001061688900B0FBC5
:10387000F1F6FDF7E7FD00EBC00101EB0010616818
:103880008900B0FBF1F06421B0FBF1F000EBC00166
:1038900001EB0010A6EB8000322101EB0010642147
:1038A000B0FBF1F000F0F006FDF7CCFD00EBC0013D
:1038B00001EB001061688900B0FBF1F06421B0FBFE
:1038C000F1F006EB0016FDF7BDFD00EBC00101EBCA
:1038D000001061688900B0FBF1F7FDF7B3FD00EB64
:1038E000C00101EB001061688900B0FBF1F06421B8
:1038F000B0FBF1F000EBC00101EB0010A7EB800082
:10390000322101EB00106421B0FBF1F000F00F0058
:103910003044216888605BE0FDF784FD00EBC00166
:1039200001EB001061688900B0FBF1F6FDF77AFD4C
:1039300000EBC00101EB001061688900B0FBF1F001
:103940006421B0FBF1F000EBC00101EB0010A6EB2D
:103950008000322101EB00106421B0FBF1F000F097
:10396000F006FDF75FFD00EBC00101EB00106168A0
:103970008900B0FBF1F06421B0FBF1F006EB00161A
:10398000FDF750FD00EBC00101EB001061688900FC
:10399000B0FBF1F7FDF746FD00EBC00101EB0010B5
:1039A00061688900B0FBF1F06421B0FBF1F000EB3D
:1039B000C00101EB0010A7EB8000322101EB0010E9
:1039C0006421B0FBF1F000F00F0030442168886002
:1039D000BDE8F0810010014000140140014691F85B
:1039E000390021282CD18868B0F5805F0FD10A6A90
:1039F0001088C0F308000B685860086918B9086A95
:103A0000801C086209E0086A401C086205E00B6A35
:103A1000581C086218780B685860C88C401E80B229
:103A2000C88458B90868C06820F080000B68D86066
:103A30000868C06840F040000B68D86000207047FC
:103A40000220FCE710B50848006800F0200030B103
:103A50000548001D0068C4B2204600F01FF8034866
:103A6000FEF7CCFB10BD000000440040B801002070
:103A700000BFFEE70BE000BF0749096801F0400105
:103A80000029F9D010F8011B034A121D11600178BA
:103A90000029F0D17047000000440040114991F81E
:103AA0006410F1B93C2804D100210E4A82F8651057
:103AB00017E03E2804D101210A4A82F8641010E080
:103AC000084991F86510074A5054114691F865105D
:103AD000491C642291FBF2F302FB1311014A82F8A4
:103AE00065107047F80100200FB4054B10B503A90D
:103AF000044A029800F0ECFD10BC5DF814FB0000D5
:103B0000395B0008680000200FB4084B10B504A909
:103B100002AA039800F0DCFD044602A9002001F08F
:103B20006EF9204610BC5DF814FB0000FF4D000844
:103B300003B401984100009850EAC12018BF042046
:103B40004A0D18BF40F0010040F2FF72B2EB515F26
:103B500008BF40F00200012808BF052002B07047EE
:103B600002480068C0F30220704700000CED00E03E
:103B700010B5002804DB0A07130E054A135406E0AB
:103B80000A07140E034A00F00F031B1FD45410BD84
:103B900000E400E018ED00E070B5C1482DED020B27
:103BA0002DED0E8B82B0119D25F000449FEDBEDB04
:103BB0009FEDBFEB84423EDBA4F140511098A1F190
:103BC0007F6108430FD0BC48844202DC28D11098A2
:103BD00030B39DED100B02B0BDEC0E8B02B0BDE812
:103BE000704000F069BC9DED100B53EC1D2B51ECA7
:103BF000100BFCF713FC9DED100B41EC180B53EC74
:103C00001E2B51EC100BFCF709FC53EC182BFCF7A6
:103C10005EFB41EC100B02B0BDEC0E8B02B070BD30
:103C2000012000F08DFC02B0BDEC0E8B02B0BDE8AF
:103C3000704000F055BCA1489FEDA18B844256DA3C
:103C40009DED100BB4F1795F0ADA51EC100BFFF720
:103C50006FFF042808BF00F053FC9DED100BDAE75E
:103C600053EC102B51EC100BFCF7D8FB41EC190B6B
:103C700095480621B0EE490AF0EE690A784400F052
:103C80009FFB53EC192B51EC100BFCF7C7FB41ECDD
:103C90001A0B8E48B0EE490AF0EE690A0421784406
:103CA00000F08EFB53EC192B51EC100BFCF7B6FB1C
:103CB00053EC182BFCF70BFB41EC100B51EC1A0BDF
:103CC00053EC102BFCF71CFCCDE900019DED000B23
:103CD00053EC102B9DED100B51EC100BFCF79EFBE1
:103CE0009DED101B53EC112BFCF7F1FAD2E09DED8A
:103CF000100B51EC100B01F013FF53EC182BFCF7D9
:103D00008AFB9FED730BCDE9000153EC102B9DED69
:103D1000000B51EC100BFCF781FB41EC190B6E48CA
:103D20000621B0EE490AF0EE690A784400F048FB3B
:103D300053EC192B51EC100BFCF770FB41EC1B0BF7
:103D40006648B0EE490AF0EE690A0421784400F0B2
:103D500037FB53EC192B51EC100BFCF75FFB53ECCA
:103D6000182BFCF7B4FA41EC1C0B51EC190B03F0C7
:103D70005FFC41EC180B5A489FED5BABA04222DC84
:103D800053EC1C2B51EC1B0BFCF7BAFBCDE90001EB
:103D90009DED000B51EC180B53EC102BFCF73EFB88
:103DA00053EC182BFCF793FA53EC1A2BFCF736FB69
:103DB00053EC1D2BFCF72CFB53EC1E2BFCF72BFBC1
:103DC00041EC100B5FE08DED008B002000909DED2D
:103DD000000B51EC180B53EC102BFCF778FA9DED0F
:103DE000000B41EC1E0B53EC102B51EC100BFCF7AD
:103DF00015FB53EC192BFCF70EFB53EC1E2BFCF7B9
:103E00007FFB41EC190B53EC1C2B51EC1B0BFCF70B
:103E100077FB41EC1B0B53EC1A2B51EC190BFCF705
:103E2000FDFA53EC1D2BFCF7F6FA41EC190B53ECA1
:103E30001A2B51EC180BFCF7F1FA53EC1B2BFCF787
:103E4000EDFA53EC192BFCF7E3FA9DED000B41EC76
:103E5000180B53EC1A2B51EC100BFCF7DFFA9FED0B
:103E6000249B53EC192BFCF7D6FA41EC100B51ECC8
:103E7000180B53EC102BFCF7CBFA53EC192BFCF777
:103E8000CAFA41EC100B002D3FF7C5AE51EC100BF8
:103E900081F0004141EC100BBDE600000000000085
:103EA0000000F03F00000000075C143326A6913CA0
:103EB000182D4454FB21F93F0000F07F0000E03F43
:103EC000000000000000F03F98470000A6470000F7
:103ED000000000000000E03FEA460000F846000055
:103EE0003333EF3F000000000000000000000040FE
:103EF000182D4454FB21E93F70B59B482DED020B72
:103F00002DED068B079D25F00044A04218DC974854
:103F1000844202DC0AD1069840B19DED060BBDEC4F
:103F2000068B02B0BDE8704000F0C6BA002DCCBFD1
:103F30009FED8F0B9FED900BBDEC068B02B070BD1B
:103F40008F48A04215DD8F48A042D8BF4FF0FF3404
:103F500058DD9DED060B51EC100BFFF7E9FD042831
:103F600008BF00F0CDFA9DED060BBDEC068B02B04C
:103F700070BD9DED060B51EC100B01F0D1FDCDE9AC
:103F8000060181489FED828BA0423CDD8248A04221
:103F90001FDD00249FED82AB9DED060B53EC1A2B29
:103FA00051EC100BFCF793F99DED060B41EC190B4E
:103FB00053EC1A2B51EC100BFCF730FA53EC182B86
:103FC000FCF726FA53EC192BFCF79AFACDE9060117
:103FD00049E09DED060B012453EC182B51EC100B1E
:103FE000FCF775F99DED060B41EC190B53EC182B02
:103FF00051EC100BFCF70CFA53EC192BFCF780FA80
:10400000CDE906012FE06848A0421FDD02249FEDA4
:10401000689B9DED060B53EC192B51EC100BFCF734
:10402000FDF953EC182BFCF752F99DED060B41EC12
:10403000180B53EC192B51EC100BFCF7E9F953EC6E
:10404000182BFCF75DFACDE906010CE09DED060B9F
:10405000032453EC102B9FED580B51EC100BFCF785
:104060004FFACDE906019DED060B53EC102B51ECF8
:10407000100BFCF7D3F941EC180B53EC182BFCF7A1
:10408000CDF941EC190B4E480621B0EE490AF0EE8D
:10409000690A784400F094F953EC182B51EC100B9A
:1040A000FCF7BCF941EC180B4648B0EE490AF0EEBB
:1040B000690A0521784400F083F953EC192B51EC7F
:1040C000100BFCF7ABF941EC100B51EC180B53EC57
:1040D000102B002C0EDAFCF7FAF89DED061B53ECC2
:1040E000112BFCF79BF99DED061B53EC112BFCF7F4
:1040F00092F935E0FCF7EBF89DED061B53EC112B24
:10410000FCF78CF941EC100B2F48784400EBC4000D
:1041100090ED001B51EC100B53EC112BFCF778F9D0
:104120009DED061B53EC112BFCF772F941EC100BC3
:104130002648784400EBC40090ED001B51EC100BB6
:1041400053EC112BFCF767F941EC100B002DA2BFCB
:10415000BDEC068B02B070BD51EC100B81F000413C
:1041600041EC100B01E70000000010440000F07F5C
:10417000182D4454FB21F93F182D4454FB21F9BF5D
:104180000000DC3F0000203E0000F33F0000000084
:10419000000000000000F03F0000E63F00000000CB
:1041A000000000000000004000800340000000000C
:1041B000000000000000F83F000000000000F0BF19
:1041C0003A440000F04300007A430000324300000C
:1041D00070B56B4E2DED040B2DED028B82B0DDF82A
:1041E0001CC0DDE905235C422CF000411C4341EA80
:1041F000D474049D22F00040B44205D86C422C4394
:1042000040EAD474B4420BD99DED061B9DED040B1E
:1042100002B0BDEC028B04B0BDE8704000F056B9AE
:10422000ACF14054A4F17F641C430BD0022404EA97
:10423000AC7444EAD27405439FED538B9FED542B2D
:1042400007D015E09DED040B51EC100B00F03CFE87
:1042500042E0002C11BF012C9DED040B02B0BDEC1F
:10426000028B04BF04B070BD022C38D0032C3BD0AD
:104270000B439FED491B9FED4A0B0AD0B14218D169
:10428000B04209D121F0804120F080400791059093
:104290000FE0002A15DA10E0434B7B44002C08BFE6
:1042A00093ED000B0DD0012C10D0022C17D0032C55
:1042B0001AD0B0421DD1002A03DAB0EE410AF0EE66
:1042C000610A02B0BDEC028B04B070BD93ED000B2F
:1042D00051EC100B81F0004141EC100BF1E7B0EE16
:1042E000480AF0EE680AECE7B0EE420AF0EE620A25
:1042F000E7E7401A00153C28C8BF8DED000B19DC1C
:10430000BCF1000FBEBF10F13C0F9FED290B8DEDEE
:10431000000B0FDB9DED060B53EC102B9DED040BFA
:1043200051EC100BFCF7ECF801F0FAFB00F0CCFDBF
:10433000CDE90001002C08BF9DED000BC1D0012C80
:1043400010D0022C9FED1C0B53EC102B9DED000B9D
:1043500051EC100B0DD0FCF75BF853EC182BFCF76D
:1043600057F8B9E7019880F0004001909DED000BEF
:10437000A7E7FCF74DF853EC182BFCF74CF8ABE72C
:104380000000F07F00000000182D4454FB2109407C
:10439000182D4454FB2109C0182D4454FB21F9BFAA
:1043A000182D4454FB21F93F624200000000000038
:1043B0000000000000000000075C143326A6A13CAA
:1043C00070B504462DED028B4D1E00EBC500B0EE1E
:1043D000408AF0EE608A90ED000B35F0060017D0B1
:1043E00053EC182B51EC100BFCF718F841EC100BA8
:1043F0006D1E04EBC50090ED001B51EC100B53EC4F
:10440000112BFBF764FF41EC100B35F00600E7D1F0
:10441000022D36D0042D1CD0062D1CBFBDEC028B06
:1044200070BD53EC182B51EC100BFBF7F7FF94ED1C
:104430000A1B53EC112BFBF74AFF53EC182BFBF72D
:10444000EDFF94ED081B53EC112BFBF740FF41EC03
:10445000100B53EC182B51EC100BFBF7DFFF94ED16
:10446000061B53EC112BFBF732FF53EC182BFBF719
:10447000D5FF94ED040B53EC102BFBF728FF41EC18
:10448000100B53EC182B51EC100BFBF7C7FF94EDFE
:10449000021B53EC112BFBF71AFF53EC182BFBF705
:1044A000BDFF94ED001B53EC112BFBF710FFBDEC8F
:1044B000028B41EC100B70BD10B553EC102B51EC7E
:1044C000100BFBF704FF41EC100B10BD10B553ECC3
:1044D000112B51EC100BFBF7FAFE41EC100B10BD49
:1044E0009FED050B10B553EC102B51EC100BFCF7A6
:1044F00007F841EC100B10BD0000000000000000A8
:104500009FED050B10B553EC102B51EC100BFBF786
:1045100085FF41EC100B10BD0000000000000010F2
:1045200002E008C8121F08C1002AFAD1704770477C
:10453000002001E001C1121F002AFBD170470000DA
:1045400001490860704700006C0000202DE9FF5F02
:1045500082B00021DDE90430020DDDF840B00343F4
:1045600018D044F61050A2F2FF32424315141198AD
:1045700001281FD0A5EB0B00401C5FEA000A4FF09A
:1045800000064E4FDFF83891B046504615D5CAF1B7
:10459000000413E0119801244AA3012801D16FEA15
:1045A0000B010298119AC0E90031C0E9024206B03D
:1045B000BDE8F09FCBF10000DFE704460021404A50
:1045C000491842EB0450CDE9001012E0E00707D093
:1045D00032463B4640464946FBF720FF8046894627
:1045E00032463B4610461946FBF718FF06460F4673
:1045F0006410002CEAD1DDE90401DDE90023BAF101
:10460000000F06DAFBF70AFF42464B46FBF706FFB0
:1046100005E0FBF775FF42464B46FBF771FF04468A
:104620000E460022284BFCF70DF903D84FF0FF305F
:10463000014607E00022254B20463146FBF747FEA6
:10464000FCF7E8F8102409E0002C0ADB0A2200231A
:10465000FBF7BCFD039B30321A55641E50EA010281
:10466000F2D1641C039AC4F111031444119A012A73
:1046700003D0012208430DD10AE0084304D00020F2
:104680004FF0110B119072E7A3EB0B056D1E0DE0BF
:104690005B4504DD4FF0000205F1010504E003DA9B
:1046A0004FF00002A5F10105002AECD00298119903
:1046B000C0E90231C0E9004579E70000000014407C
:1046C0000000F03F300000000000F0430000E03F39
:1046D0002DE9FF4F95B09B468946064600250FE21F
:1046E000252877D100242746F84A0121059400E0C7
:1046F000044316F8013F203B01FA03F01042F7D1C2
:1047000030782A2811D06FF02F033078A0F13002D2
:10471000092A16D8059A44F0020402EB820203EB40
:1047200042021044761C0590EFE759F8042B0592DD
:10473000002A03DA504244F40054059044F0020485
:10474000761C30782E2816D116F8010F44F0040498
:104750002A280DD06FF02F023078A0F13003092BFA
:1047600009D807EB870302EB4303C718761CF3E76E
:1047700059F8047B761C30786C280FD006DC4C2866
:1047800017D068280DD06A2814D104E0742810D0FE
:104790007A280FD10DE044F400140AE044F48014A8
:1047A00001E044F440147278824202D104F580148E
:1047B000761C761C307866280BD013DC582877D00E
:1047C00009DC002875D04528F6D04628F4D04728C3
:1047D0001AD19DE118E0632835D0642879D0652886
:1047E00012D195E1702873D008DC6728F1D06928D0
:1047F0006FD06E280DD06F2806D1B5E073282CD06D
:10480000752875D0782874D05A46179990476D1C32
:1048100075E1C4F30250022809D003280DD0D9F85D
:10482000001004280DD00D6009F1040967E1D9F8E2
:104830000010EA17C1E90052F6E7D9F800100D8020
:10484000F2E70D70F0E719F8041B8DF80010002056
:104850008DF80100EA46012003E059F804AB4FF05F
:10486000FF3061074FF0000102D40DE008F10101B3
:104870008846B9420FDA8045F8DB1AF8081000299B
:10488000F4D108E008F1010188468142FADB1AF808
:1048900008100029F6D105985B46A0EB08072146D1
:1048A0003846179A00F094FA284400EB080507E010
:1048B0004DE029E10DE01AF8010B5A46179990478F
:1048C000B8F10108F7D25B4621463846179A13E142
:1048D00042E00A220092C4F302524FF0000A022A78
:1048E00008D059F804CB032A4FEAEC710AD00DE046
:1048F00029E02AE009F1070121F00702F2E802C1EC
:10490000914609E00FFA8CFC4FEAEC71042A03D1BE
:104910004FFA8CFC4FEAEC71002907DA0A460021B5
:10492000DCF1000C61EB02012D2202E0220504D52E
:104930002B228DF80420012203E0E20701D020227F
:10494000F7E7904659E00A2102E010220DE010211D
:104950004FF0000A00910BE010224FF0000A44F0E3
:1049600004040827009203E008224FF0000A009296
:10497000C4F30252022A05D059F804CB0021032ABD
:1049800008D009E009F1070121F00702F2E802C1AD
:10499000914605E01FFA8CFC042A01D10CF0FF0CB3
:1049A0004FF00008220728D5702806D0009B83F01E
:1049B000100353EA0A0305D00EE040228DF80420CC
:1049C000012208E05CEA010206D030228DF80420C2
:1049D0008DF8050002229046009B83F0080353EAFD
:1049E0000A030AD15CEA010201D1620705D530222F
:1049F0008DF804204FF001087F1E582804D034A001
:104A000003900EA802900DE036A0F9E753466046E9
:104A1000009AFBF7DBFB84460398825C0298401EF9
:104A2000029002705CEA0100F0D1029806A9081A0F
:104A300000F1200A600702D524F4803400E0012749
:104A4000574502DDA7EB0A0000E0002000EB0A0159
:104A5000009005984144401A0590E00306D45B4657
:104A60002146179A059800F0B3F90544002706E09F
:104A700001A85A46C05D179990476D1C7F1C474599
:104A8000F6DBE0030CD55B462146179A059800F04B
:104A90009FF9054404E030205A46179990476D1C51
:104AA0000099481E00900029F5DC08E00298029960
:104AB0005A460078491C0291179990476D1CBAF12B
:104AC0000001AAF1010AF1DC65E1000009280100FA
:104AD0003031323334353637383961626364656674
:104AE0000000000030313233343536373839414236
:104AF000434445460000000000F058F90544761C88
:104B0000307800287FF4ECAD19B02846BDE8F08F6E
:104B1000620700D4062709F1070222F0070CFCE81F
:104B20000223E14603F000485FEA080C02D00FF2CE
:104B3000702C0DE05FEA045C02D50FF2682C07E0F0
:104B40005FEAC47C02D00FF2602C01E0AFF2700C7F
:104B50004FF0FF3823F00043CDF850C065280CD04B
:104B600006DC452809D046281DD047283DD13DE028
:104B7000662818D067287ED138E00021112F01DB8C
:104B8000112000E0781CCDE9000106A90EA8FFF76E
:104B9000DDFCDDE90F010E9A03910021009207F17F
:104BA000010A04914DE04FF000400097CDE901105B
:104BB00006A90EA8FFF7CAFCDDE90F0203920E9BBF
:104BC00011990022DDF80CA00093049211B9791C10
:104BD00000EB010AB7EB0A0004D4C0F1FF3007F183
:104BE000010A0490AAEB0700019044E0012F00DACB
:104BF00001270021112F01DD112000E03846CDE909
:104C0000000106A90EA8FFF7A1FCDDE90F010E9A2D
:104C10000391002104910092BA4621070CD4039914
:104C2000514500DA8A46BAF1010F05DD009AAAF172
:104C30000101515C302908D0B84202DA10F1040FAA
:104C400006DA0121CDE9011015E0AAF10101E9E739
:104C5000002805DC049901440491AAEB000102E05C
:104C6000411C514500DD8A460499401A401C0190C0
:104C70004FF000400290200704D40198504501DB1A
:104C8000CDF8048000208DF84F0002980DF14F07F9
:104C9000B0F1004F25D02B200E9002984FF0020863
:104CA00000280CDA404202902D200E9007E00A21E5
:104CB0000298FBF7D4FC3031029007F8011DB8F1DF
:104CC0000001A8F10108F2DC02980028EFD1791E5A
:104CD0000E980870307800F0200040F0450007F88A
:104CE000020D12A8C01B00F107081498007800B14B
:104CF000012000EB0A01019801EBE07105984144A5
:104D0000401A401E0590E00306D45B462146179AE0
:104D1000059800F05DF805441498007818B15A46DB
:104D2000179990476D1CE00324D55B462146179ADE
:104D3000059800F04DF805441CE00498002807DBB6
:104D4000DDE90301884203DD0098405C179901E02A
:104D5000179930205A469047049805F10105401CE8
:104D600004900198401E019004D12E205A461799B4
:104D700090476D1CBAF10001AAF1010ADDDC05E0E3
:104D800017F8010B5A46179990476D1CB8F10001AE
:104D9000A8F10108F4DC5B462146179A0598ABE6BA
:104DA0002D0000002B000000200000002DE9F04144
:104DB000044600251E461746880404D405E03946FB
:104DC0002020B0476D1C641EF9D52846BDE8F0814F
:104DD0002DE9F041044600251E469046C80301D542
:104DE000302700E02027880404D505E041463846F6
:104DF000B0476D1C641EF9D52846BDE8F0810A68ED
:104E0000531C0B6010707047F0B52DED028B83B012
:104E100006460F460025684600F098FE002447E04D
:104E200056F8241057F82420881A002801DB014680
:104E300000E0414200EE101AB8EEC00ADFED200A91
:104E400080EE208A684600EB840090ED000AB5EE03
:104E5000C00AF1EE10FA18D0684600EB8400D0EDDD
:104E6000000A88EE200AF7EE000A70EE608AB0EEC3
:104E7000E80A1448D0ED090AB4EEE00AF1EE10FA9F
:104E800015DD0120A040054311E00E4890ED070A12
:104E9000B4EEC80AF1EE10FA06DC90ED080AB4EEA2
:104EA000C80AF1EE10FA02D20120A0400543641CAA
:104EB000032CB5DB284603B0BDEC028BF0BD00002F
:104EC00000008047DC77000810B541EC100BFFF7BD
:104ED00013F851EC100B10BD10B50248FEF7C5F8E1
:104EE00010BD0000F80100202DE9F0410446E078F3
:104EF00000F0C006E07800F03F05607800F00100A7
:104F000098B1EF102846E91705EB5171C910A5EBD0
:104F1000C101491C01F0FF080B48006820B10A4894
:104F2000414602683846904700BF607800F00800AC
:104F300030B10548406818B1B011034A516888473C
:104F40000020BDE8F0810000A402002038B504462E
:104F500064B120208DF8000028208DF80100302059
:104F60008DF8020038208DF8030004E0A32204210C
:104F70006846FBF78DF96A46042140F69E2002F050
:104F800055FA01F03FFE38BD3EB5044602208DF8CB
:104F90000000CA208DF80100E3208DF802000920EE
:104FA0008DF803006A460421682002F03FFAA3202E
:104FB0008DF8000004F0400048B1C0208DF80100D9
:104FC000C8208DF80200C2208DF8030006E0A3205F
:104FD0008DF801008DF802008DF8030004F4C07014
:104FE00048B1C4208DF80400CC208DF80500C620FF
:104FF0008DF8060006E0A3208DF804008DF805006A
:105000008DF80600A3208DF807008DF808008DF8B4
:1050100009006A460A2140F6A72002F007FA04F0C8
:10502000030018B120208DF8000002E0D8208DF890
:1050300000006A46012140F6B62002F0F7F904F0BC
:10504000200018B1012000F0ADF802E0002000F0CF
:10505000A9F804F4C07008B304F4807060B1B22001
:105060008DF800008B208DF80100B6208DF802002D
:105070009B208DF803000BE0B0208DF8000080200D
:105080008DF80100B4208DF8020090208DF8030007
:105090006A46042140F6A22002F0C8F904F001009B
:1050A00020B3F8208DF800006A4601214FF40B6010
:1050B00002F0BCF9FA21072000F02CFC072000F0D8
:1050C000F3FB012000F013FC642000F003FD4FF41B
:1050D000FA7000F012FDC821304800F0A3FB282030
:1050E00000F0BCFB0A2000F0CCFB08E0D8208DF8D3
:1050F00000006A4601214FF40B6002F097F904F0BA
:10510000020018B1D9208DF8000002E0D8208DF8F7
:1051100000006A46012140F23D7002F087F904F078
:10512000040018B1012000F069F802E0002000F04E
:1051300065F804F0100018B10120FFF707FF02E046
:105140000020FFF703FF44F008001549488101F0F3
:1051500059FD00201249887304F0400018B1084638
:10516000807B801D887304F4C07020B10C48807B64
:10517000801D0B49887304F0140020B10848807B1F
:1051800010300749887304F0030020B10448807B85
:10519000001D0349887300203EBD000009E3CA02D8
:1051A000A40200203EB504466CB10EA1D1E9002056
:1051B0008968CDE9002002916A4609214FF4976081
:1051C00002F034F93EBD0AA2D2E900109268CDE99E
:1051D000010200916A4609214FF4976002F026F916
:1051E000F0E70000B8AAB38DB4980D355D0000005B
:1051F000B8AAAAAAB088C3C5C700000038B504463B
:1052000064B1C0208DF80000C2208DF80100C420D8
:105210008DF80200C6208DF8030004E08B220421E3
:105220006846FBF735F86A46042140F6982002F0FC
:10523000FDF801F0E7FC38BD10B5C8234FF48062DB
:10524000024940F6F63001F071FB10BD0478000809
:105250002DE9F04F8DB00746884615469946DDE9A1
:10526000166B0024002030806B49887B5A4605A9C4
:1052700001F028FC18B1601E0DB0BDE8F08F664843
:10528000807A00F01400002867D09DF81400000612
:105290009DF8151040EA01409DF8161040EA0120E3
:1052A0009DF81710084328609DF8180000069DF827
:1052B000191040EA01409DF81A1040EA01209DF8BB
:1052C0001B10084368609DF81C0000069DF81D1027
:1052D00040EA01409DF81E1040EA01209DF81F1091
:1052E0000843A8609DF8200000069DF8211040EAC0
:1052F00001409DF8221040EA01209DF82310084348
:10530000E86004F11000C4B22868001401906868D5
:1053100000140290A86800140390E8680014049038
:1053200001984043029901FB0100039901FB010030
:10533000049901FB010ABAF1706F02DBBAF1885FD0
:1053400005DD01F05FFC00203080401E94E7B6F9D7
:10535000000040F48070308000BF2F48807A00F059
:10536000400020B305A9601C085C095D40EA0120EB
:1053700000B2A8F8000005A9E01C095C05AAA01C61
:10538000105C41EA002000B2A8F8020005A9601DE7
:10539000095C201D105C41EA002000B2A8F804005E
:1053A000A01DC4B2B6F9000040F0080030801A48D1
:1053B000408900F4C07008B305A9601C085C095D51
:1053C00040EA012000B2388005A9E01C095C05AA6A
:1053D000A01C105C41EA002000B2788005A9601D85
:1053E000095C201D105C41EA002000B2B880A01DBD
:1053F000C4B2B6F9000040F0700030800648807AF0
:1054000000F0030018B105A90819FFF76DFD484623
:1054100000F01DFF00202FE7A402002070B588B027
:10542000064601A801F0CEF8BDF804000021C9032A
:1054300041EA5045C4034448007A00F0030056F89E
:10544000200005904048007A00F0040010B1059853
:10545000404205903C48007AC0F3C10056F8200055
:1054600006903948007A00F0200010B106984042BA
:1054700006903548007AC0F3811056F82000079056
:105480003148008900F4807010B1079840420790BD
:105490000598C117A0FB042301FB043100FB051094
:1054A000810041EA927005900698C117A0FB042381
:1054B00001FB043100FB0510810041EA9270069067
:1054C0000798C117A0FB042301FB043100FB051062
:1054D000810041EA927007900598000E8DF808004F
:1054E0000598000C8DF809000598000A8DF80A004F
:1054F0000598C0B28DF80B000698000E8DF80C00D0
:105500000698000C8DF80D000698000A8DF80E0024
:105510000698C0B28DF80F000798000E8DF81000A5
:105520000798000C8DF811000798000A8DF81200FA
:105530000798C0B28DF8130002AA0C214FF4257011
:1055400001F074FF08B070BDA402002030B585B032
:10555000044616A207CA02AB07C3C82C03DD4FF0EE
:10556000FF3005B030BDC82090FBF4F0401E85B27E
:10557000280A8DF80000E8B28DF801006A46022181
:1055800040F2162001F052FF10B14FF0FF30E8E773
:1055900002AA0C2140F6C12001F048FF10B14FF0E3
:1055A000FF30DEE7044884810020DAE7FEF2ABC476
:1055B000AAF1DFDFBBAFDFDFA40200201FB5044686
:1055C0004848007A00F0030054F820000190454854
:1055D000007A00F0040010B1019840420190414867
:1055E000007AC0F3C10054F8200002903D48007AD0
:1055F00000F0200010B10298404202903948007A31
:10560000C0F3811054F8200003903648008900F45C
:10561000807010B10398404203903349019880FB99
:105620000101800F40EA810001902F49029880FB20
:105630000110820042EA917002902B49039880FB8E
:105640000110820042EA917003900198000E8DF8DB
:1056500000000198000C8DF801000198000A8DF8F7
:1056600002000198C0B28DF803006A4604214FF48D
:10567000747001F0DBFE18B14FF0FF3004B010BDC4
:105680000298000E8DF800000298000C8DF80100C1
:105690000298000A8DF802000298C0B28DF803004B
:1056A0006A4604214FF4757001F0C0FE10B14FF04E
:1056B000FF30E3E70398000E8DF800000398000C1C
:1056C0008DF801000398000A8DF802000398C0B21B
:1056D0008DF803006A4604214FF4767001F0A6FEAF
:1056E000CCE70000A402002009E3CA0210B586B08E
:1056F000044647A00068039046A00068029046A0B8
:105700000068019045A00068009004F0030003A920
:10571000085C8DF8140003A8C4F3C101405C8DF847
:10572000150003A8C4F38111405C8DF8160004F045
:10573000030002A9085C8DF8100002A8C4F3C1019F
:10574000405C8DF8110002A8C4F38111405C8DF813
:10575000120005AA032140F2264001F067FE18B1AD
:105760004FF0FF3006B010BD04AA032140F22A40DA
:1057700001F05CFE10B14FF0FF30F3E701980590A7
:105780000098049004F0040058B19DF8140040F013
:1057900001008DF814009DF8100040F001008DF814
:1057A000100004F0200058B19DF8150040F00100F1
:1057B0008DF815009DF8110040F001008DF81100E2
:1057C00004F4807058B19DF8160040F001008DF887
:1057D00016009DF8120040F001008DF8120005AA95
:1057E00003214FF4886001F021FE10B14FF0FF302B
:1057F000B8E704AA032140F2314001F017FE10B1CE
:105800004FF0FF30AEE7064804810020AAE7000011
:105810004CCD6C000CC92C0036567600264666002E
:10582000A4020020F8B505460E464FF47A7095FBA9
:10583000F0F000FB06F4200E8DF80000200C8DF82F
:105840000100200A8DF80200E0B28DF803006A46DC
:1058500004214FF4AE7001F0E9FDF8BD38B50446FF
:10586000052094FBF0F084B220128DF80000E0B225
:105870008DF801006A4602214FF4AD7001F0D6FDAB
:1058800038BD38B50446052094FBF0F084B22012F0
:105890008DF80000E0B28DF801006A4602214FF455
:1058A000AC7001F0C3FD38BD38B50446002000904F
:1058B00004F0010020B19DF8000040F0300000909D
:1058C00004F0020020B19DF8000040F00C000090B0
:1058D00004F0040020B19DF8000040F003000090A7
:1058E0006A4601214FF4A47001F0A0FD38BD38B51F
:1058F0000446012C01DA012402E0042C00DD04241A
:10590000601EC0B200906A46012140F24F1001F0C3
:105910008DFD38BDF0B52DED028B83B006460F46E8
:1059200006F0070010B1B7F5C86F05DD4FF0FF3086
:1059300003B0BDEC028BF0BD00EE107AB8EE400A69
:10594000DFED5B0A80EE208A01A800F015FE9DF8CD
:105950000400022806D0042817D0082828D01028D0
:105960004CD138E09FED530A28EE000ABCEEC00A85
:1059700010EE100A84B29FED500A28EE000ABCEE29
:10598000C00A10EE100A85B23BE09FED4C0A28EEEB
:10599000000ABCEEC00A10EE100A84B29FED480A5D
:1059A00028EE000ABCEEC00A10EE100A85B228E00C
:1059B0009FED440A28EE000ABCEEC00A10EE100A61
:1059C00084B29FED410A28EE000ABCEEC00A10EE38
:1059D000100A85B215E09FED3D0A28EE000ABCEEE4
:1059E000C00A10EE100A84B29FED390A28EE000AB0
:1059F000BCEEC00A10EE100A85B202E04FF0FF3094
:105A000096E700BF20128DF80800E0B28DF809007B
:105A100028128DF80A00E8B28DF80B0006F001009C
:105A2000A0B102AA02214FF4EA7001F0FFFC10B10C
:105A30004FF0FF307CE70DF10A0202214FF4927023
:105A400001F0F4FC10B14FF0FF3071E706F00200F6
:105A5000A0B102AA02214FF4EC7001F0E7FC10B1F2
:105A60004FF0FF3064E70DF10A0202214FF4947009
:105A700001F0DCFC10B14FF0FF3059E706F00400F4
:105A8000A0B102AA02214FF4EE7001F0CFFC10B1D8
:105A90004FF0FF304CE70DF10A0202214FF49670EF
:105AA00001F0C4FC10B14FF0FF3041E700203FE7A8
:105AB00000004843000080460000404600000046C9
:105AC0000000C04500008045000040450000004542
:105AD0000000C04438B50446052094FBF0F085B2C0
